{
  "abi": [
    {
      "inputs": [],
      "stateMutability": "nonpayable",
      "type": "constructor"
    },
    {
      "anonymous": false,
      "inputs": [
        {
          "indexed": true,
          "internalType": "address",
          "name": "owner",
          "type": "address"
        },
        {
          "indexed": true,
          "internalType": "address",
          "name": "approved",
          "type": "address"
        },
        {
          "indexed": true,
          "internalType": "uint256",
          "name": "tokenId",
          "type": "uint256"
        }
      ],
      "name": "Approval",
      "type": "event"
    },
    {
      "anonymous": false,
      "inputs": [
        {
          "indexed": true,
          "internalType": "address",
          "name": "owner",
          "type": "address"
        },
        {
          "indexed": true,
          "internalType": "address",
          "name": "operator",
          "type": "address"
        },
        {
          "indexed": false,
          "internalType": "bool",
          "name": "approved",
          "type": "bool"
        }
      ],
      "name": "ApprovalForAll",
      "type": "event"
    },
    {
      "anonymous": false,
      "inputs": [
        {
          "indexed": true,
          "internalType": "address",
          "name": "previousOwner",
          "type": "address"
        },
        {
          "indexed": true,
          "internalType": "address",
          "name": "newOwner",
          "type": "address"
        }
      ],
      "name": "OwnershipTransferred",
      "type": "event"
    },
    {
      "anonymous": false,
      "inputs": [
        {
          "indexed": true,
          "internalType": "address",
          "name": "from",
          "type": "address"
        },
        {
          "indexed": true,
          "internalType": "address",
          "name": "to",
          "type": "address"
        },
        {
          "indexed": true,
          "internalType": "uint256",
          "name": "tokenId",
          "type": "uint256"
        }
      ],
      "name": "Transfer",
      "type": "event"
    },
    {
      "inputs": [],
      "name": "MAX_SUPPLY",
      "outputs": [
        {
          "internalType": "uint256",
          "name": "",
          "type": "uint256"
        }
      ],
      "stateMutability": "view",
      "type": "function"
    },
    {
      "inputs": [
        {
          "internalType": "address",
          "name": "to",
          "type": "address"
        },
        {
          "internalType": "uint256",
          "name": "tokenId",
          "type": "uint256"
        }
      ],
      "name": "approve",
      "outputs": [],
      "stateMutability": "nonpayable",
      "type": "function"
    },
    {
      "inputs": [
        {
          "internalType": "address",
          "name": "owner",
          "type": "address"
        }
      ],
      "name": "balanceOf",
      "outputs": [
        {
          "internalType": "uint256",
          "name": "",
          "type": "uint256"
        }
      ],
      "stateMutability": "view",
      "type": "function"
    },
    {
      "inputs": [],
      "name": "deployed",
      "outputs": [
        {
          "internalType": "bool",
          "name": "",
          "type": "bool"
        }
      ],
      "stateMutability": "view",
      "type": "function"
    },
    {
      "inputs": [
        {
          "internalType": "uint256",
          "name": "tokenId",
          "type": "uint256"
        }
      ],
      "name": "getApproved",
      "outputs": [
        {
          "internalType": "address",
          "name": "",
          "type": "address"
        }
      ],
      "stateMutability": "view",
      "type": "function"
    },
    {
      "inputs": [
        {
          "internalType": "address",
          "name": "owner",
          "type": "address"
        },
        {
          "internalType": "address",
          "name": "operator",
          "type": "address"
        }
      ],
      "name": "isApprovedForAll",
      "outputs": [
        {
          "internalType": "bool",
          "name": "",
          "type": "bool"
        }
      ],
      "stateMutability": "view",
      "type": "function"
    },
    {
      "inputs": [],
      "name": "mintPrice",
      "outputs": [
        {
          "internalType": "uint256",
          "name": "",
          "type": "uint256"
        }
      ],
      "stateMutability": "view",
      "type": "function"
    },
    {
      "inputs": [],
      "name": "name",
      "outputs": [
        {
          "internalType": "string",
          "name": "",
          "type": "string"
        }
      ],
      "stateMutability": "view",
      "type": "function"
    },
    {
      "inputs": [],
      "name": "owner",
      "outputs": [
        {
          "internalType": "address",
          "name": "",
          "type": "address"
        }
      ],
      "stateMutability": "view",
      "type": "function"
    },
    {
      "inputs": [
        {
          "internalType": "uint256",
          "name": "tokenId",
          "type": "uint256"
        }
      ],
      "name": "ownerOf",
      "outputs": [
        {
          "internalType": "address",
          "name": "",
          "type": "address"
        }
      ],
      "stateMutability": "view",
      "type": "function"
    },
    {
      "inputs": [],
      "name": "renounceOwnership",
      "outputs": [],
      "stateMutability": "nonpayable",
      "type": "function"
    },
    {
      "inputs": [
        {
          "internalType": "uint256",
          "name": "mintAmount",
          "type": "uint256"
        }
      ],
      "name": "safeMint",
      "outputs": [],
      "stateMutability": "payable",
      "type": "function"
    },
    {
      "inputs": [
        {
          "internalType": "address",
          "name": "from",
          "type": "address"
        },
        {
          "internalType": "address",
          "name": "to",
          "type": "address"
        },
        {
          "internalType": "uint256",
          "name": "tokenId",
          "type": "uint256"
        }
      ],
      "name": "safeTransferFrom",
      "outputs": [],
      "stateMutability": "nonpayable",
      "type": "function"
    },
    {
      "inputs": [
        {
          "internalType": "address",
          "name": "from",
          "type": "address"
        },
        {
          "internalType": "address",
          "name": "to",
          "type": "address"
        },
        {
          "internalType": "uint256",
          "name": "tokenId",
          "type": "uint256"
        },
        {
          "internalType": "bytes",
          "name": "data",
          "type": "bytes"
        }
      ],
      "name": "safeTransferFrom",
      "outputs": [],
      "stateMutability": "nonpayable",
      "type": "function"
    },
    {
      "inputs": [
        {
          "internalType": "address",
          "name": "operator",
          "type": "address"
        },
        {
          "internalType": "bool",
          "name": "approved",
          "type": "bool"
        }
      ],
      "name": "setApprovalForAll",
      "outputs": [],
      "stateMutability": "nonpayable",
      "type": "function"
    },
    {
      "inputs": [
        {
          "internalType": "bytes4",
          "name": "interfaceId",
          "type": "bytes4"
        }
      ],
      "name": "supportsInterface",
      "outputs": [
        {
          "internalType": "bool",
          "name": "",
          "type": "bool"
        }
      ],
      "stateMutability": "view",
      "type": "function"
    },
    {
      "inputs": [],
      "name": "symbol",
      "outputs": [
        {
          "internalType": "string",
          "name": "",
          "type": "string"
        }
      ],
      "stateMutability": "view",
      "type": "function"
    },
    {
      "inputs": [
        {
          "internalType": "uint256",
          "name": "index",
          "type": "uint256"
        }
      ],
      "name": "tokenByIndex",
      "outputs": [
        {
          "internalType": "uint256",
          "name": "",
          "type": "uint256"
        }
      ],
      "stateMutability": "view",
      "type": "function"
    },
    {
      "inputs": [
        {
          "internalType": "address",
          "name": "owner",
          "type": "address"
        },
        {
          "internalType": "uint256",
          "name": "index",
          "type": "uint256"
        }
      ],
      "name": "tokenOfOwnerByIndex",
      "outputs": [
        {
          "internalType": "uint256",
          "name": "",
          "type": "uint256"
        }
      ],
      "stateMutability": "view",
      "type": "function"
    },
    {
      "inputs": [
        {
          "internalType": "uint256",
          "name": "tokenId",
          "type": "uint256"
        }
      ],
      "name": "tokenURI",
      "outputs": [
        {
          "internalType": "string",
          "name": "",
          "type": "string"
        }
      ],
      "stateMutability": "view",
      "type": "function"
    },
    {
      "inputs": [],
      "name": "totalSupply",
      "outputs": [
        {
          "internalType": "uint256",
          "name": "",
          "type": "uint256"
        }
      ],
      "stateMutability": "view",
      "type": "function"
    },
    {
      "inputs": [
        {
          "internalType": "address",
          "name": "from",
          "type": "address"
        },
        {
          "internalType": "address",
          "name": "to",
          "type": "address"
        },
        {
          "internalType": "uint256",
          "name": "tokenId",
          "type": "uint256"
        }
      ],
      "name": "transferFrom",
      "outputs": [],
      "stateMutability": "nonpayable",
      "type": "function"
    },
    {
      "inputs": [
        {
          "internalType": "address",
          "name": "newOwner",
          "type": "address"
        }
      ],
      "name": "transferOwnership",
      "outputs": [],
      "stateMutability": "nonpayable",
      "type": "function"
    },
    {
      "inputs": [],
      "name": "withdraw",
      "outputs": [],
      "stateMutability": "payable",
      "type": "function"
    }
  ],
  "bytecode": {
    "object": "0x6080604052600d805460ff191690553480156200001b57600080fd5b5060405180604001604052806005815260200164437574696560d81b815250604051806040016040528060048152602001634355544560e01b8152508160009081620000689190620001a2565b506001620000778282620001a2565b505050620000946200008e620000a760201b60201c565b620000ab565b600d805460ff191660011790556200026e565b3390565b600b80546001600160a01b038381166001600160a01b0319831681179093556040519116919082907f8be0079c531659141344cd1fd0a4f28419497f9722a3daafe3b4186f6b6457e090600090a35050565b634e487b7160e01b600052604160045260246000fd5b600181811c908216806200012857607f821691505b6020821081036200014957634e487b7160e01b600052602260045260246000fd5b50919050565b601f8211156200019d57600081815260208120601f850160051c81016020861015620001785750805b601f850160051c820191505b81811015620001995782815560010162000184565b5050505b505050565b81516001600160401b03811115620001be57620001be620000fd565b620001d681620001cf845462000113565b846200014f565b602080601f8311600181146200020e5760008415620001f55750858301515b600019600386901b1c1916600185901b17855562000199565b600085815260208120601f198616915b828110156200023f578886015182559484019460019091019084016200021e565b50858210156200025e5787850151600019600388901b60f8161c191681555b5050505050600190811b01905550565b611f9f806200027e6000396000f3fe60806040526004361061014b5760003560e01c80636352211e116100b6578063a22cb4651161006f578063a22cb46514610373578063b88d4fde14610393578063c87b56dd146103b3578063e985e9c5146103d3578063f2fde38b1461041c578063f905c15a1461043c57600080fd5b80636352211e146102d05780636817c76c146102f057806370a082311461030b578063715018a61461032b5780638da5cb5b1461034057806395d89b411461035e57600080fd5b80632f745c59116101085780632f745c591461024057806331c864e81461026057806332cb6b0c146102735780633ccfd60b1461028857806342842e0e146102905780634f6ccce7146102b057600080fd5b806301ffc9a71461015057806306fdde0314610185578063081812fc146101a7578063095ea7b3146101df57806318160ddd1461020157806323b872dd14610220575b600080fd5b34801561015c57600080fd5b5061017061016b36600461194f565b610456565b60405190151581526020015b60405180910390f35b34801561019157600080fd5b5061019a610467565b60405161017c91906119bc565b3480156101b357600080fd5b506101c76101c23660046119cf565b6104f9565b6040516001600160a01b03909116815260200161017c565b3480156101eb57600080fd5b506101ff6101fa366004611a04565b610520565b005b34801561020d57600080fd5b506008545b60405190815260200161017c565b34801561022c57600080fd5b506101ff61023b366004611a2e565b61063a565b34801561024c57600080fd5b5061021261025b366004611a04565b61066b565b6101ff61026e3660046119cf565b610701565b34801561027f57600080fd5b50610212606481565b6101ff6108c3565b34801561029c57600080fd5b506101ff6102ab366004611a2e565b610998565b3480156102bc57600080fd5b506102126102cb3660046119cf565b6109b3565b3480156102dc57600080fd5b506101c76102eb3660046119cf565b610a46565b3480156102fc57600080fd5b50610212662386f26fc1000081565b34801561031757600080fd5b50610212610326366004611a6a565b610aa6565b34801561033757600080fd5b506101ff610b2c565b34801561034c57600080fd5b50600b546001600160a01b03166101c7565b34801561036a57600080fd5b5061019a610b40565b34801561037f57600080fd5b506101ff61038e366004611a85565b610b4f565b34801561039f57600080fd5b506101ff6103ae366004611ad7565b610b5a565b3480156103bf57600080fd5b5061019a6103ce3660046119cf565b610b92565b3480156103df57600080fd5b506101706103ee366004611bb3565b6001600160a01b03918216600090815260056020908152604080832093909416825291909152205460ff1690565b34801561042857600080fd5b506101ff610437366004611a6a565b610b9d565b34801561044857600080fd5b50600d546101709060ff1681565b600061046182610c16565b92915050565b60606000805461047690611be6565b80601f01602080910402602001604051908101604052809291908181526020018280546104a290611be6565b80156104ef5780601f106104c4576101008083540402835291602001916104ef565b820191906000526020600020905b8154815290600101906020018083116104d257829003601f168201915b5050505050905090565b600061050482610c3b565b506000908152600460205260409020546001600160a01b031690565b600061052b82610a46565b9050806001600160a01b0316836001600160a01b03160361059d5760405162461bcd60e51b815260206004820152602160248201527f4552433732313a20617070726f76616c20746f2063757272656e74206f776e656044820152603960f91b60648201526084015b60405180910390fd5b336001600160a01b03821614806105b957506105b981336103ee565b61062b5760405162461bcd60e51b815260206004820152603d60248201527f4552433732313a20617070726f76652063616c6c6572206973206e6f7420746f60448201527f6b656e206f776e6572206f7220617070726f76656420666f7220616c6c0000006064820152608401610594565b6106358383610c9a565b505050565b6106443382610d08565b6106605760405162461bcd60e51b815260040161059490611c20565b610635838383610d87565b600061067683610aa6565b82106106d85760405162461bcd60e51b815260206004820152602b60248201527f455243373231456e756d657261626c653a206f776e657220696e646578206f7560448201526a74206f6620626f756e647360a81b6064820152608401610594565b506001600160a01b03919091166000908152600660209081526040808320938352929052205490565b600081116107485760405162461bcd60e51b81526020600482015260146024820152734d757374206d696e74206174206c65617374203160601b6044820152606401610594565b60058111156107a95760405162461bcd60e51b815260206004820152602760248201527f4d6178696d756d2035206e66747320616c6c6f77656420696e2061207472616e60448201526639b0b1ba34b7b760c91b6064820152608401610594565b6064816107b5600c5490565b6107bf9190611c83565b11156108045760405162461bcd60e51b81526020600482015260146024820152730a6eae0e0d8f240d2e640dcdee840cadcdeeaced60631b6044820152606401610594565b61081581662386f26fc10000611c96565b34101561085b5760405162461bcd60e51b8152602060048201526014602482015273496e73756666696369656e742062616c616e636560601b6044820152606401610594565b60015b8181116108bf57610873600c80546001019055565b600061087e600c5490565b905061088a3382610f3d565b6108ac81604051806060016040528060358152602001611f3560359139610f57565b50806108b781611cb5565b91505061085e565b5050565b6108cb610fea565b478061090e5760405162461bcd60e51b81526020600482015260126024820152714e6f7420656e6f7567682062616c616e636560701b6044820152606401610594565b604051600090339083908381818185875af1925050503d8060008114610950576040519150601f19603f3d011682016040523d82523d6000602084013e610955565b606091505b50509050806108bf5760405162461bcd60e51b815260206004820152600f60248201526e15da5d1a191c985dc819985a5b1959608a1b6044820152606401610594565b61063583838360405180602001604052806000815250610b5a565b60006109be60085490565b8210610a215760405162461bcd60e51b815260206004820152602c60248201527f455243373231456e756d657261626c653a20676c6f62616c20696e646578206f60448201526b7574206f6620626f756e647360a01b6064820152608401610594565b60088281548110610a3457610a34611cce565b90600052602060002001549050919050565b6000818152600260205260408120546001600160a01b0316806104615760405162461bcd60e51b8152602060048201526018602482015277115490cdcc8c4e881a5b9d985b1a59081d1bdad95b88125160421b6044820152606401610594565b60006001600160a01b038216610b105760405162461bcd60e51b815260206004820152602960248201527f4552433732313a2061646472657373207a65726f206973206e6f7420612076616044820152683634b21037bbb732b960b91b6064820152608401610594565b506001600160a01b031660009081526003602052604090205490565b610b34610fea565b610b3e6000611044565b565b60606001805461047690611be6565b6108bf338383611096565b610b643383610d08565b610b805760405162461bcd60e51b815260040161059490611c20565b610b8c84848484611164565b50505050565b606061046182611197565b610ba5610fea565b6001600160a01b038116610c0a5760405162461bcd60e51b815260206004820152602660248201527f4f776e61626c653a206e6577206f776e657220697320746865207a65726f206160448201526564647265737360d01b6064820152608401610594565b610c1381611044565b50565b60006001600160e01b0319821663780e9d6360e01b148061046157506104618261129f565b6000818152600260205260409020546001600160a01b0316610c135760405162461bcd60e51b8152602060048201526018602482015277115490cdcc8c4e881a5b9d985b1a59081d1bdad95b88125160421b6044820152606401610594565b600081815260046020526040902080546001600160a01b0319166001600160a01b0384169081179091558190610ccf82610a46565b6001600160a01b03167f8c5be1e5ebec7d5bd14f71427d1e84f3dd0314c0f7b2291e5b200ac8c7c3b92560405160405180910390a45050565b600080610d1483610a46565b9050806001600160a01b0316846001600160a01b03161480610d5b57506001600160a01b0380821660009081526005602090815260408083209388168352929052205460ff165b80610d7f5750836001600160a01b0316610d74846104f9565b6001600160a01b0316145b949350505050565b826001600160a01b0316610d9a82610a46565b6001600160a01b031614610dfe5760405162461bcd60e51b815260206004820152602560248201527f4552433732313a207472616e736665722066726f6d20696e636f72726563742060448201526437bbb732b960d91b6064820152608401610594565b6001600160a01b038216610e605760405162461bcd60e51b8152602060048201526024808201527f4552433732313a207472616e7366657220746f20746865207a65726f206164646044820152637265737360e01b6064820152608401610594565b610e6b8383836112ef565b600081815260046020908152604080832080546001600160a01b03191690556001600160a01b038616835260039091528120805460019290610eae908490611ce4565b90915550506001600160a01b0382166000908152600360205260408120805460019290610edc908490611c83565b909155505060008181526002602052604080822080546001600160a01b0319166001600160a01b0386811691821790925591518493918716917fddf252ad1be2c89b69c2b068fc378daa952ba7f163c4a11628f55a4df523b3ef91a4505050565b6108bf8282604051806020016040528060008152506112fa565b6000828152600260205260409020546001600160a01b0316610fd25760405162461bcd60e51b815260206004820152602e60248201527f45524337323155524953746f726167653a2055524920736574206f66206e6f6e60448201526d32bc34b9ba32b73a103a37b5b2b760911b6064820152608401610594565b6000828152600a602052604090206106358282611d45565b600b546001600160a01b03163314610b3e5760405162461bcd60e51b815260206004820181905260248201527f4f776e61626c653a2063616c6c6572206973206e6f7420746865206f776e65726044820152606401610594565b600b80546001600160a01b038381166001600160a01b0319831681179093556040519116919082907f8be0079c531659141344cd1fd0a4f28419497f9722a3daafe3b4186f6b6457e090600090a35050565b816001600160a01b0316836001600160a01b0316036110f75760405162461bcd60e51b815260206004820152601960248201527f4552433732313a20617070726f766520746f2063616c6c6572000000000000006044820152606401610594565b6001600160a01b03838116600081815260056020908152604080832094871680845294825291829020805460ff191686151590811790915591519182527f17307eab39ab6107e8899845ad3d59bd9653f200f220920489ca2b5937696c31910160405180910390a3505050565b61116f848484610d87565b61117b8484848461132d565b610b8c5760405162461bcd60e51b815260040161059490611e05565b60606111a282610c3b565b6000828152600a6020526040812080546111bb90611be6565b80601f01602080910402602001604051908101604052809291908181526020018280546111e790611be6565b80156112345780601f1061120957610100808354040283529160200191611234565b820191906000526020600020905b81548152906001019060200180831161121757829003601f168201915b50505050509050600061125260408051602081019091526000815290565b90508051600003611264575092915050565b81511561129657808260405160200161127e929190611e57565b60405160208183030381529060405292505050919050565b610d7f8461142e565b60006001600160e01b031982166380ac58cd60e01b14806112d057506001600160e01b03198216635b5e139f60e01b145b8061046157506301ffc9a760e01b6001600160e01b0319831614610461565b6106358383836114a2565b611304838361155a565b611311600084848461132d565b6106355760405162461bcd60e51b815260040161059490611e05565b60006001600160a01b0384163b1561142357604051630a85bd0160e11b81526001600160a01b0385169063150b7a0290611371903390899088908890600401611e86565b6020604051808303816000875af19250505080156113ac575060408051601f3d908101601f191682019092526113a991810190611ec3565b60015b611409573d8080156113da576040519150601f19603f3d011682016040523d82523d6000602084013e6113df565b606091505b5080516000036114015760405162461bcd60e51b815260040161059490611e05565b805181602001fd5b6001600160e01b031916630a85bd0160e11b149050610d7f565b506001949350505050565b606061143982610c3b565b600061145060408051602081019091526000815290565b90506000815111611470576040518060200160405280600081525061149b565b8061147a846116a8565b60405160200161148b929190611e57565b6040516020818303038152906040525b9392505050565b6001600160a01b0383166114fd576114f881600880546000838152600960205260408120829055600182018355919091527ff3f7a9fe364faab93b216da50a3214154f22a0a2b415b23a84c8169e8b636ee30155565b611520565b816001600160a01b0316836001600160a01b0316146115205761152083826117a9565b6001600160a01b0382166115375761063581611846565b826001600160a01b0316826001600160a01b0316146106355761063582826118f5565b6001600160a01b0382166115b05760405162461bcd60e51b815260206004820181905260248201527f4552433732313a206d696e7420746f20746865207a65726f20616464726573736044820152606401610594565b6000818152600260205260409020546001600160a01b0316156116155760405162461bcd60e51b815260206004820152601c60248201527f4552433732313a20746f6b656e20616c7265616479206d696e746564000000006044820152606401610594565b611621600083836112ef565b6001600160a01b038216600090815260036020526040812080546001929061164a908490611c83565b909155505060008181526002602052604080822080546001600160a01b0319166001600160a01b03861690811790915590518392907fddf252ad1be2c89b69c2b068fc378daa952ba7f163c4a11628f55a4df523b3ef908290a45050565b6060816000036116cf5750506040805180820190915260018152600360fc1b602082015290565b8160005b81156116f957806116e381611cb5565b91506116f29050600a83611ef6565b91506116d3565b60008167ffffffffffffffff81111561171457611714611ac1565b6040519080825280601f01601f19166020018201604052801561173e576020820181803683370190505b5090505b8415610d7f57611753600183611ce4565b9150611760600a86611f0a565b61176b906030611c83565b60f81b81838151811061178057611780611cce565b60200101906001600160f81b031916908160001a9053506117a2600a86611ef6565b9450611742565b600060016117b684610aa6565b6117c09190611ce4565b600083815260076020526040902054909150808214611813576001600160a01b03841660009081526006602090815260408083208584528252808320548484528184208190558352600790915290208190555b5060009182526007602090815260408084208490556001600160a01b039094168352600681528383209183525290812055565b60085460009061185890600190611ce4565b6000838152600960205260408120546008805493945090928490811061188057611880611cce565b9060005260206000200154905080600883815481106118a1576118a1611cce565b60009182526020808320909101929092558281526009909152604080822084905585825281205560088054806118d9576118d9611f1e565b6001900381819060005260206000200160009055905550505050565b600061190083610aa6565b6001600160a01b039093166000908152600660209081526040808320868452825280832085905593825260079052919091209190915550565b6001600160e01b031981168114610c1357600080fd5b60006020828403121561196157600080fd5b813561149b81611939565b60005b8381101561198757818101518382015260200161196f565b50506000910152565b600081518084526119a881602086016020860161196c565b601f01601f19169290920160200192915050565b60208152600061149b6020830184611990565b6000602082840312156119e157600080fd5b5035919050565b80356001600160a01b03811681146119ff57600080fd5b919050565b60008060408385031215611a1757600080fd5b611a20836119e8565b946020939093013593505050565b600080600060608486031215611a4357600080fd5b611a4c846119e8565b9250611a5a602085016119e8565b9150604084013590509250925092565b600060208284031215611a7c57600080fd5b61149b826119e8565b60008060408385031215611a9857600080fd5b611aa1836119e8565b915060208301358015158114611ab657600080fd5b809150509250929050565b634e487b7160e01b600052604160045260246000fd5b60008060008060808587031215611aed57600080fd5b611af6856119e8565b9350611b04602086016119e8565b925060408501359150606085013567ffffffffffffffff80821115611b2857600080fd5b818701915087601f830112611b3c57600080fd5b813581811115611b4e57611b4e611ac1565b604051601f8201601f19908116603f01168101908382118183101715611b7657611b76611ac1565b816040528281528a6020848701011115611b8f57600080fd5b82602086016020830137600060208483010152809550505050505092959194509250565b60008060408385031215611bc657600080fd5b611bcf836119e8565b9150611bdd602084016119e8565b90509250929050565b600181811c90821680611bfa57607f821691505b602082108103611c1a57634e487b7160e01b600052602260045260246000fd5b50919050565b6020808252602d908201527f4552433732313a2063616c6c6572206973206e6f7420746f6b656e206f776e6560408201526c1c881bdc88185c1c1c9bdd9959609a1b606082015260800190565b634e487b7160e01b600052601160045260246000fd5b8082018082111561046157610461611c6d565b6000816000190483118215151615611cb057611cb0611c6d565b500290565b600060018201611cc757611cc7611c6d565b5060010190565b634e487b7160e01b600052603260045260246000fd5b8181038181111561046157610461611c6d565b601f82111561063557600081815260208120601f850160051c81016020861015611d1e5750805b601f850160051c820191505b81811015611d3d57828155600101611d2a565b505050505050565b815167ffffffffffffffff811115611d5f57611d5f611ac1565b611d7381611d6d8454611be6565b84611cf7565b602080601f831160018114611da85760008415611d905750858301515b600019600386901b1c1916600185901b178555611d3d565b600085815260208120601f198616915b82811015611dd757888601518255948401946001909101908401611db8565b5085821015611df55787850151600019600388901b60f8161c191681555b5050505050600190811b01905550565b60208082526032908201527f4552433732313a207472616e7366657220746f206e6f6e20455243373231526560408201527131b2b4bb32b91034b6b83632b6b2b73a32b960711b606082015260800190565b60008351611e6981846020880161196c565b835190830190611e7d81836020880161196c565b01949350505050565b6001600160a01b0385811682528416602082015260408101839052608060608201819052600090611eb990830184611990565b9695505050505050565b600060208284031215611ed557600080fd5b815161149b81611939565b634e487b7160e01b600052601260045260246000fd5b600082611f0557611f05611ee0565b500490565b600082611f1957611f19611ee0565b500690565b634e487b7160e01b600052603160045260246000fdfe697066733a2f2f516d5a76424673544668665237356245566974475648637143436b52355767596d6748564e696848356e6d656a4ea264697066735822122085755df91e1a87bd0e3c0e0af48a75a76920b29abd88c0eb7b388b8b82569aba64736f6c63430008100033",
    "linkReferences": {}
  },
  "methodIdentifiers": {
    "MAX_SUPPLY()": "32cb6b0c",
    "approve(address,uint256)": "095ea7b3",
    "balanceOf(address)": "70a08231",
    "deployed()": "f905c15a",
    "getApproved(uint256)": "081812fc",
    "isApprovedForAll(address,address)": "e985e9c5",
    "mintPrice()": "6817c76c",
    "name()": "06fdde03",
    "owner()": "8da5cb5b",
    "ownerOf(uint256)": "6352211e",
    "renounceOwnership()": "715018a6",
    "safeMint(uint256)": "31c864e8",
    "safeTransferFrom(address,address,uint256)": "42842e0e",
    "safeTransferFrom(address,address,uint256,bytes)": "b88d4fde",
    "setApprovalForAll(address,bool)": "a22cb465",
    "supportsInterface(bytes4)": "01ffc9a7",
    "symbol()": "95d89b41",
    "tokenByIndex(uint256)": "4f6ccce7",
    "tokenOfOwnerByIndex(address,uint256)": "2f745c59",
    "tokenURI(uint256)": "c87b56dd",
    "totalSupply()": "18160ddd",
    "transferFrom(address,address,uint256)": "23b872dd",
    "transferOwnership(address)": "f2fde38b",
    "withdraw()": "3ccfd60b"
  },
  "id": 20
}