{
  "abi": [
    {
      "inputs": [],
      "stateMutability": "nonpayable",
      "type": "constructor"
    },
    {
      "anonymous": false,
      "inputs": [
        {
          "indexed": true,
          "internalType": "address",
          "name": "owner",
          "type": "address"
        },
        {
          "indexed": true,
          "internalType": "address",
          "name": "approved",
          "type": "address"
        },
        {
          "indexed": true,
          "internalType": "uint256",
          "name": "tokenId",
          "type": "uint256"
        }
      ],
      "name": "Approval",
      "type": "event"
    },
    {
      "anonymous": false,
      "inputs": [
        {
          "indexed": true,
          "internalType": "address",
          "name": "owner",
          "type": "address"
        },
        {
          "indexed": true,
          "internalType": "address",
          "name": "operator",
          "type": "address"
        },
        {
          "indexed": false,
          "internalType": "bool",
          "name": "approved",
          "type": "bool"
        }
      ],
      "name": "ApprovalForAll",
      "type": "event"
    },
    {
      "anonymous": false,
      "inputs": [
        {
          "indexed": true,
          "internalType": "address",
          "name": "previousOwner",
          "type": "address"
        },
        {
          "indexed": true,
          "internalType": "address",
          "name": "newOwner",
          "type": "address"
        }
      ],
      "name": "OwnershipTransferred",
      "type": "event"
    },
    {
      "anonymous": false,
      "inputs": [
        {
          "indexed": true,
          "internalType": "address",
          "name": "from",
          "type": "address"
        },
        {
          "indexed": true,
          "internalType": "address",
          "name": "to",
          "type": "address"
        },
        {
          "indexed": true,
          "internalType": "uint256",
          "name": "tokenId",
          "type": "uint256"
        }
      ],
      "name": "Transfer",
      "type": "event"
    },
    {
      "inputs": [],
      "name": "MAX_SUPPLY",
      "outputs": [
        {
          "internalType": "uint256",
          "name": "",
          "type": "uint256"
        }
      ],
      "stateMutability": "view",
      "type": "function"
    },
    {
      "inputs": [
        {
          "internalType": "address",
          "name": "to",
          "type": "address"
        },
        {
          "internalType": "uint256",
          "name": "tokenId",
          "type": "uint256"
        }
      ],
      "name": "approve",
      "outputs": [],
      "stateMutability": "nonpayable",
      "type": "function"
    },
    {
      "inputs": [
        {
          "internalType": "address",
          "name": "owner",
          "type": "address"
        }
      ],
      "name": "balanceOf",
      "outputs": [
        {
          "internalType": "uint256",
          "name": "",
          "type": "uint256"
        }
      ],
      "stateMutability": "view",
      "type": "function"
    },
    {
      "inputs": [
        {
          "internalType": "uint256",
          "name": "tokenId",
          "type": "uint256"
        }
      ],
      "name": "getApproved",
      "outputs": [
        {
          "internalType": "address",
          "name": "",
          "type": "address"
        }
      ],
      "stateMutability": "view",
      "type": "function"
    },
    {
      "inputs": [
        {
          "internalType": "address",
          "name": "owner",
          "type": "address"
        },
        {
          "internalType": "address",
          "name": "operator",
          "type": "address"
        }
      ],
      "name": "isApprovedForAll",
      "outputs": [
        {
          "internalType": "bool",
          "name": "",
          "type": "bool"
        }
      ],
      "stateMutability": "view",
      "type": "function"
    },
    {
      "inputs": [],
      "name": "mintPrice",
      "outputs": [
        {
          "internalType": "uint256",
          "name": "",
          "type": "uint256"
        }
      ],
      "stateMutability": "view",
      "type": "function"
    },
    {
      "inputs": [],
      "name": "name",
      "outputs": [
        {
          "internalType": "string",
          "name": "",
          "type": "string"
        }
      ],
      "stateMutability": "view",
      "type": "function"
    },
    {
      "inputs": [],
      "name": "owner",
      "outputs": [
        {
          "internalType": "address",
          "name": "",
          "type": "address"
        }
      ],
      "stateMutability": "view",
      "type": "function"
    },
    {
      "inputs": [
        {
          "internalType": "uint256",
          "name": "tokenId",
          "type": "uint256"
        }
      ],
      "name": "ownerOf",
      "outputs": [
        {
          "internalType": "address",
          "name": "",
          "type": "address"
        }
      ],
      "stateMutability": "view",
      "type": "function"
    },
    {
      "inputs": [],
      "name": "renounceOwnership",
      "outputs": [],
      "stateMutability": "nonpayable",
      "type": "function"
    },
    {
      "inputs": [
        {
          "internalType": "uint256",
          "name": "mintAmount",
          "type": "uint256"
        }
      ],
      "name": "safeMint",
      "outputs": [],
      "stateMutability": "payable",
      "type": "function"
    },
    {
      "inputs": [
        {
          "internalType": "address",
          "name": "from",
          "type": "address"
        },
        {
          "internalType": "address",
          "name": "to",
          "type": "address"
        },
        {
          "internalType": "uint256",
          "name": "tokenId",
          "type": "uint256"
        }
      ],
      "name": "safeTransferFrom",
      "outputs": [],
      "stateMutability": "nonpayable",
      "type": "function"
    },
    {
      "inputs": [
        {
          "internalType": "address",
          "name": "from",
          "type": "address"
        },
        {
          "internalType": "address",
          "name": "to",
          "type": "address"
        },
        {
          "internalType": "uint256",
          "name": "tokenId",
          "type": "uint256"
        },
        {
          "internalType": "bytes",
          "name": "data",
          "type": "bytes"
        }
      ],
      "name": "safeTransferFrom",
      "outputs": [],
      "stateMutability": "nonpayable",
      "type": "function"
    },
    {
      "inputs": [
        {
          "internalType": "address",
          "name": "operator",
          "type": "address"
        },
        {
          "internalType": "bool",
          "name": "approved",
          "type": "bool"
        }
      ],
      "name": "setApprovalForAll",
      "outputs": [],
      "stateMutability": "nonpayable",
      "type": "function"
    },
    {
      "inputs": [
        {
          "internalType": "bytes4",
          "name": "interfaceId",
          "type": "bytes4"
        }
      ],
      "name": "supportsInterface",
      "outputs": [
        {
          "internalType": "bool",
          "name": "",
          "type": "bool"
        }
      ],
      "stateMutability": "view",
      "type": "function"
    },
    {
      "inputs": [],
      "name": "symbol",
      "outputs": [
        {
          "internalType": "string",
          "name": "",
          "type": "string"
        }
      ],
      "stateMutability": "view",
      "type": "function"
    },
    {
      "inputs": [
        {
          "internalType": "uint256",
          "name": "index",
          "type": "uint256"
        }
      ],
      "name": "tokenByIndex",
      "outputs": [
        {
          "internalType": "uint256",
          "name": "",
          "type": "uint256"
        }
      ],
      "stateMutability": "view",
      "type": "function"
    },
    {
      "inputs": [
        {
          "internalType": "address",
          "name": "owner",
          "type": "address"
        },
        {
          "internalType": "uint256",
          "name": "index",
          "type": "uint256"
        }
      ],
      "name": "tokenOfOwnerByIndex",
      "outputs": [
        {
          "internalType": "uint256",
          "name": "",
          "type": "uint256"
        }
      ],
      "stateMutability": "view",
      "type": "function"
    },
    {
      "inputs": [
        {
          "internalType": "uint256",
          "name": "tokenId",
          "type": "uint256"
        }
      ],
      "name": "tokenURI",
      "outputs": [
        {
          "internalType": "string",
          "name": "",
          "type": "string"
        }
      ],
      "stateMutability": "view",
      "type": "function"
    },
    {
      "inputs": [],
      "name": "totalSupply",
      "outputs": [
        {
          "internalType": "uint256",
          "name": "",
          "type": "uint256"
        }
      ],
      "stateMutability": "view",
      "type": "function"
    },
    {
      "inputs": [
        {
          "internalType": "address",
          "name": "from",
          "type": "address"
        },
        {
          "internalType": "address",
          "name": "to",
          "type": "address"
        },
        {
          "internalType": "uint256",
          "name": "tokenId",
          "type": "uint256"
        }
      ],
      "name": "transferFrom",
      "outputs": [],
      "stateMutability": "nonpayable",
      "type": "function"
    },
    {
      "inputs": [
        {
          "internalType": "address",
          "name": "newOwner",
          "type": "address"
        }
      ],
      "name": "transferOwnership",
      "outputs": [],
      "stateMutability": "nonpayable",
      "type": "function"
    },
    {
      "inputs": [],
      "name": "withdraw",
      "outputs": [],
      "stateMutability": "payable",
      "type": "function"
    }
  ],
  "bytecode": {
    "object": "0x60806040526005600d553480156200001657600080fd5b5060405180604001604052806005815260200164437574696560d81b815250604051806040016040528060048152602001634355544560e01b815250816000908162000063919062000190565b50600162000072828262000190565b5050506200008f620000896200009560201b60201c565b62000099565b6200025c565b3390565b600b80546001600160a01b038381166001600160a01b0319831681179093556040519116919082907f8be0079c531659141344cd1fd0a4f28419497f9722a3daafe3b4186f6b6457e090600090a35050565b634e487b7160e01b600052604160045260246000fd5b600181811c908216806200011657607f821691505b6020821081036200013757634e487b7160e01b600052602260045260246000fd5b50919050565b601f8211156200018b57600081815260208120601f850160051c81016020861015620001665750805b601f850160051c820191505b81811015620001875782815560010162000172565b5050505b505050565b81516001600160401b03811115620001ac57620001ac620000eb565b620001c481620001bd845462000101565b846200013d565b602080601f831160018114620001fc5760008415620001e35750858301515b600019600386901b1c1916600185901b17855562000187565b600085815260208120601f198616915b828110156200022d578886015182559484019460019091019084016200020c565b50858210156200024c5787850151600019600388901b60f8161c191681555b5050505050600190811b01905550565b611f7b806200026c6000396000f3fe6080604052600436106101405760003560e01c80634f6ccce7116100b657806395d89b411161006f57806395d89b4114610353578063a22cb46514610368578063b88d4fde14610388578063c87b56dd146103a8578063e985e9c5146103c8578063f2fde38b1461041157600080fd5b80634f6ccce7146102a55780636352211e146102c55780636817c76c146102e557806370a0823114610300578063715018a6146103205780638da5cb5b1461033557600080fd5b806323b872dd1161010857806323b872dd146102155780632f745c591461023557806331c864e81461025557806332cb6b0c146102685780633ccfd60b1461027d57806342842e0e1461028557600080fd5b806301ffc9a71461014557806306fdde031461017a578063081812fc1461019c578063095ea7b3146101d457806318160ddd146101f6575b600080fd5b34801561015157600080fd5b5061016561016036600461192b565b610431565b60405190151581526020015b60405180910390f35b34801561018657600080fd5b5061018f610442565b6040516101719190611998565b3480156101a857600080fd5b506101bc6101b73660046119ab565b6104d4565b6040516001600160a01b039091168152602001610171565b3480156101e057600080fd5b506101f46101ef3660046119e0565b6104fb565b005b34801561020257600080fd5b506008545b604051908152602001610171565b34801561022157600080fd5b506101f4610230366004611a0a565b610615565b34801561024157600080fd5b506102076102503660046119e0565b610646565b6101f46102633660046119ab565b6106dc565b34801561027457600080fd5b50610207606481565b6101f461089f565b34801561029157600080fd5b506101f46102a0366004611a0a565b610974565b3480156102b157600080fd5b506102076102c03660046119ab565b61098f565b3480156102d157600080fd5b506101bc6102e03660046119ab565b610a22565b3480156102f157600080fd5b50610207662386f26fc1000081565b34801561030c57600080fd5b5061020761031b366004611a46565b610a82565b34801561032c57600080fd5b506101f4610b08565b34801561034157600080fd5b50600b546001600160a01b03166101bc565b34801561035f57600080fd5b5061018f610b1c565b34801561037457600080fd5b506101f4610383366004611a61565b610b2b565b34801561039457600080fd5b506101f46103a3366004611ab3565b610b36565b3480156103b457600080fd5b5061018f6103c33660046119ab565b610b6e565b3480156103d457600080fd5b506101656103e3366004611b8f565b6001600160a01b03918216600090815260056020908152604080832093909416825291909152205460ff1690565b34801561041d57600080fd5b506101f461042c366004611a46565b610b79565b600061043c82610bf2565b92915050565b60606000805461045190611bc2565b80601f016020809104026020016040519081016040528092919081815260200182805461047d90611bc2565b80156104ca5780601f1061049f576101008083540402835291602001916104ca565b820191906000526020600020905b8154815290600101906020018083116104ad57829003601f168201915b5050505050905090565b60006104df82610c17565b506000908152600460205260409020546001600160a01b031690565b600061050682610a22565b9050806001600160a01b0316836001600160a01b0316036105785760405162461bcd60e51b815260206004820152602160248201527f4552433732313a20617070726f76616c20746f2063757272656e74206f776e656044820152603960f91b60648201526084015b60405180910390fd5b336001600160a01b0382161480610594575061059481336103e3565b6106065760405162461bcd60e51b815260206004820152603d60248201527f4552433732313a20617070726f76652063616c6c6572206973206e6f7420746f60448201527f6b656e206f776e6572206f7220617070726f76656420666f7220616c6c000000606482015260840161056f565b6106108383610c76565b505050565b61061f3382610ce4565b61063b5760405162461bcd60e51b815260040161056f90611bfc565b610610838383610d63565b600061065183610a82565b82106106b35760405162461bcd60e51b815260206004820152602b60248201527f455243373231456e756d657261626c653a206f776e657220696e646578206f7560448201526a74206f6620626f756e647360a81b606482015260840161056f565b506001600160a01b03919091166000908152600660209081526040808320938352929052205490565b600081116107235760405162461bcd60e51b81526020600482015260146024820152734d757374206d696e74206174206c65617374203160601b604482015260640161056f565b600d548111156107855760405162461bcd60e51b815260206004820152602760248201527f4d6178696d756d2035206e66747320616c6c6f77656420696e2061207472616e60448201526639b0b1ba34b7b760c91b606482015260840161056f565b606481610791600c5490565b61079b9190611c5f565b11156107e05760405162461bcd60e51b81526020600482015260146024820152730a6eae0e0d8f240d2e640dcdee840cadcdeeaced60631b604482015260640161056f565b6107f181662386f26fc10000611c72565b3410156108375760405162461bcd60e51b8152602060048201526014602482015273496e73756666696369656e742062616c616e636560601b604482015260640161056f565b60015b81811161089b5761084f600c80546001019055565b600061085a600c5490565b90506108663382610f19565b61088881604051806060016040528060358152602001611f1160359139610f33565b508061089381611c91565b91505061083a565b5050565b6108a7610fc6565b47806108ea5760405162461bcd60e51b81526020600482015260126024820152714e6f7420656e6f7567682062616c616e636560701b604482015260640161056f565b604051600090339083908381818185875af1925050503d806000811461092c576040519150601f19603f3d011682016040523d82523d6000602084013e610931565b606091505b505090508061089b5760405162461bcd60e51b815260206004820152600f60248201526e15da5d1a191c985dc819985a5b1959608a1b604482015260640161056f565b61061083838360405180602001604052806000815250610b36565b600061099a60085490565b82106109fd5760405162461bcd60e51b815260206004820152602c60248201527f455243373231456e756d657261626c653a20676c6f62616c20696e646578206f60448201526b7574206f6620626f756e647360a01b606482015260840161056f565b60088281548110610a1057610a10611caa565b90600052602060002001549050919050565b6000818152600260205260408120546001600160a01b03168061043c5760405162461bcd60e51b8152602060048201526018602482015277115490cdcc8c4e881a5b9d985b1a59081d1bdad95b88125160421b604482015260640161056f565b60006001600160a01b038216610aec5760405162461bcd60e51b815260206004820152602960248201527f4552433732313a2061646472657373207a65726f206973206e6f7420612076616044820152683634b21037bbb732b960b91b606482015260840161056f565b506001600160a01b031660009081526003602052604090205490565b610b10610fc6565b610b1a6000611020565b565b60606001805461045190611bc2565b61089b338383611072565b610b403383610ce4565b610b5c5760405162461bcd60e51b815260040161056f90611bfc565b610b6884848484611140565b50505050565b606061043c82611173565b610b81610fc6565b6001600160a01b038116610be65760405162461bcd60e51b815260206004820152602660248201527f4f776e61626c653a206e6577206f776e657220697320746865207a65726f206160448201526564647265737360d01b606482015260840161056f565b610bef81611020565b50565b60006001600160e01b0319821663780e9d6360e01b148061043c575061043c8261127b565b6000818152600260205260409020546001600160a01b0316610bef5760405162461bcd60e51b8152602060048201526018602482015277115490cdcc8c4e881a5b9d985b1a59081d1bdad95b88125160421b604482015260640161056f565b600081815260046020526040902080546001600160a01b0319166001600160a01b0384169081179091558190610cab82610a22565b6001600160a01b03167f8c5be1e5ebec7d5bd14f71427d1e84f3dd0314c0f7b2291e5b200ac8c7c3b92560405160405180910390a45050565b600080610cf083610a22565b9050806001600160a01b0316846001600160a01b03161480610d3757506001600160a01b0380821660009081526005602090815260408083209388168352929052205460ff165b80610d5b5750836001600160a01b0316610d50846104d4565b6001600160a01b0316145b949350505050565b826001600160a01b0316610d7682610a22565b6001600160a01b031614610dda5760405162461bcd60e51b815260206004820152602560248201527f4552433732313a207472616e736665722066726f6d20696e636f72726563742060448201526437bbb732b960d91b606482015260840161056f565b6001600160a01b038216610e3c5760405162461bcd60e51b8152602060048201526024808201527f4552433732313a207472616e7366657220746f20746865207a65726f206164646044820152637265737360e01b606482015260840161056f565b610e478383836112cb565b600081815260046020908152604080832080546001600160a01b03191690556001600160a01b038616835260039091528120805460019290610e8a908490611cc0565b90915550506001600160a01b0382166000908152600360205260408120805460019290610eb8908490611c5f565b909155505060008181526002602052604080822080546001600160a01b0319166001600160a01b0386811691821790925591518493918716917fddf252ad1be2c89b69c2b068fc378daa952ba7f163c4a11628f55a4df523b3ef91a4505050565b61089b8282604051806020016040528060008152506112d6565b6000828152600260205260409020546001600160a01b0316610fae5760405162461bcd60e51b815260206004820152602e60248201527f45524337323155524953746f726167653a2055524920736574206f66206e6f6e60448201526d32bc34b9ba32b73a103a37b5b2b760911b606482015260840161056f565b6000828152600a602052604090206106108282611d21565b600b546001600160a01b03163314610b1a5760405162461bcd60e51b815260206004820181905260248201527f4f776e61626c653a2063616c6c6572206973206e6f7420746865206f776e6572604482015260640161056f565b600b80546001600160a01b038381166001600160a01b0319831681179093556040519116919082907f8be0079c531659141344cd1fd0a4f28419497f9722a3daafe3b4186f6b6457e090600090a35050565b816001600160a01b0316836001600160a01b0316036110d35760405162461bcd60e51b815260206004820152601960248201527f4552433732313a20617070726f766520746f2063616c6c657200000000000000604482015260640161056f565b6001600160a01b03838116600081815260056020908152604080832094871680845294825291829020805460ff191686151590811790915591519182527f17307eab39ab6107e8899845ad3d59bd9653f200f220920489ca2b5937696c31910160405180910390a3505050565b61114b848484610d63565b61115784848484611309565b610b685760405162461bcd60e51b815260040161056f90611de1565b606061117e82610c17565b6000828152600a60205260408120805461119790611bc2565b80601f01602080910402602001604051908101604052809291908181526020018280546111c390611bc2565b80156112105780601f106111e557610100808354040283529160200191611210565b820191906000526020600020905b8154815290600101906020018083116111f357829003601f168201915b50505050509050600061122e60408051602081019091526000815290565b90508051600003611240575092915050565b81511561127257808260405160200161125a929190611e33565b60405160208183030381529060405292505050919050565b610d5b8461140a565b60006001600160e01b031982166380ac58cd60e01b14806112ac57506001600160e01b03198216635b5e139f60e01b145b8061043c57506301ffc9a760e01b6001600160e01b031983161461043c565b61061083838361147e565b6112e08383611536565b6112ed6000848484611309565b6106105760405162461bcd60e51b815260040161056f90611de1565b60006001600160a01b0384163b156113ff57604051630a85bd0160e11b81526001600160a01b0385169063150b7a029061134d903390899088908890600401611e62565b6020604051808303816000875af1925050508015611388575060408051601f3d908101601f1916820190925261138591810190611e9f565b60015b6113e5573d8080156113b6576040519150601f19603f3d011682016040523d82523d6000602084013e6113bb565b606091505b5080516000036113dd5760405162461bcd60e51b815260040161056f90611de1565b805181602001fd5b6001600160e01b031916630a85bd0160e11b149050610d5b565b506001949350505050565b606061141582610c17565b600061142c60408051602081019091526000815290565b9050600081511161144c5760405180602001604052806000815250611477565b8061145684611684565b604051602001611467929190611e33565b6040516020818303038152906040525b9392505050565b6001600160a01b0383166114d9576114d481600880546000838152600960205260408120829055600182018355919091527ff3f7a9fe364faab93b216da50a3214154f22a0a2b415b23a84c8169e8b636ee30155565b6114fc565b816001600160a01b0316836001600160a01b0316146114fc576114fc8382611785565b6001600160a01b0382166115135761061081611822565b826001600160a01b0316826001600160a01b0316146106105761061082826118d1565b6001600160a01b03821661158c5760405162461bcd60e51b815260206004820181905260248201527f4552433732313a206d696e7420746f20746865207a65726f2061646472657373604482015260640161056f565b6000818152600260205260409020546001600160a01b0316156115f15760405162461bcd60e51b815260206004820152601c60248201527f4552433732313a20746f6b656e20616c7265616479206d696e74656400000000604482015260640161056f565b6115fd600083836112cb565b6001600160a01b0382166000908152600360205260408120805460019290611626908490611c5f565b909155505060008181526002602052604080822080546001600160a01b0319166001600160a01b03861690811790915590518392907fddf252ad1be2c89b69c2b068fc378daa952ba7f163c4a11628f55a4df523b3ef908290a45050565b6060816000036116ab5750506040805180820190915260018152600360fc1b602082015290565b8160005b81156116d557806116bf81611c91565b91506116ce9050600a83611ed2565b91506116af565b60008167ffffffffffffffff8111156116f0576116f0611a9d565b6040519080825280601f01601f19166020018201604052801561171a576020820181803683370190505b5090505b8415610d5b5761172f600183611cc0565b915061173c600a86611ee6565b611747906030611c5f565b60f81b81838151811061175c5761175c611caa565b60200101906001600160f81b031916908160001a90535061177e600a86611ed2565b945061171e565b6000600161179284610a82565b61179c9190611cc0565b6000838152600760205260409020549091508082146117ef576001600160a01b03841660009081526006602090815260408083208584528252808320548484528184208190558352600790915290208190555b5060009182526007602090815260408084208490556001600160a01b039094168352600681528383209183525290812055565b60085460009061183490600190611cc0565b6000838152600960205260408120546008805493945090928490811061185c5761185c611caa565b90600052602060002001549050806008838154811061187d5761187d611caa565b60009182526020808320909101929092558281526009909152604080822084905585825281205560088054806118b5576118b5611efa565b6001900381819060005260206000200160009055905550505050565b60006118dc83610a82565b6001600160a01b039093166000908152600660209081526040808320868452825280832085905593825260079052919091209190915550565b6001600160e01b031981168114610bef57600080fd5b60006020828403121561193d57600080fd5b813561147781611915565b60005b8381101561196357818101518382015260200161194b565b50506000910152565b60008151808452611984816020860160208601611948565b601f01601f19169290920160200192915050565b602081526000611477602083018461196c565b6000602082840312156119bd57600080fd5b5035919050565b80356001600160a01b03811681146119db57600080fd5b919050565b600080604083850312156119f357600080fd5b6119fc836119c4565b946020939093013593505050565b600080600060608486031215611a1f57600080fd5b611a28846119c4565b9250611a36602085016119c4565b9150604084013590509250925092565b600060208284031215611a5857600080fd5b611477826119c4565b60008060408385031215611a7457600080fd5b611a7d836119c4565b915060208301358015158114611a9257600080fd5b809150509250929050565b634e487b7160e01b600052604160045260246000fd5b60008060008060808587031215611ac957600080fd5b611ad2856119c4565b9350611ae0602086016119c4565b925060408501359150606085013567ffffffffffffffff80821115611b0457600080fd5b818701915087601f830112611b1857600080fd5b813581811115611b2a57611b2a611a9d565b604051601f8201601f19908116603f01168101908382118183101715611b5257611b52611a9d565b816040528281528a6020848701011115611b6b57600080fd5b82602086016020830137600060208483010152809550505050505092959194509250565b60008060408385031215611ba257600080fd5b611bab836119c4565b9150611bb9602084016119c4565b90509250929050565b600181811c90821680611bd657607f821691505b602082108103611bf657634e487b7160e01b600052602260045260246000fd5b50919050565b6020808252602d908201527f4552433732313a2063616c6c6572206973206e6f7420746f6b656e206f776e6560408201526c1c881bdc88185c1c1c9bdd9959609a1b606082015260800190565b634e487b7160e01b600052601160045260246000fd5b8082018082111561043c5761043c611c49565b6000816000190483118215151615611c8c57611c8c611c49565b500290565b600060018201611ca357611ca3611c49565b5060010190565b634e487b7160e01b600052603260045260246000fd5b8181038181111561043c5761043c611c49565b601f82111561061057600081815260208120601f850160051c81016020861015611cfa5750805b601f850160051c820191505b81811015611d1957828155600101611d06565b505050505050565b815167ffffffffffffffff811115611d3b57611d3b611a9d565b611d4f81611d498454611bc2565b84611cd3565b602080601f831160018114611d845760008415611d6c5750858301515b600019600386901b1c1916600185901b178555611d19565b600085815260208120601f198616915b82811015611db357888601518255948401946001909101908401611d94565b5085821015611dd15787850151600019600388901b60f8161c191681555b5050505050600190811b01905550565b60208082526032908201527f4552433732313a207472616e7366657220746f206e6f6e20455243373231526560408201527131b2b4bb32b91034b6b83632b6b2b73a32b960711b606082015260800190565b60008351611e45818460208801611948565b835190830190611e59818360208801611948565b01949350505050565b6001600160a01b0385811682528416602082015260408101839052608060608201819052600090611e959083018461196c565b9695505050505050565b600060208284031215611eb157600080fd5b815161147781611915565b634e487b7160e01b600052601260045260246000fd5b600082611ee157611ee1611ebc565b500490565b600082611ef557611ef5611ebc565b500690565b634e487b7160e01b600052603160045260246000fdfe697066733a2f2f516d5a76424673544668665237356245566974475648637143436b52355767596d6748564e696848356e6d656a4ea2646970667358221220160e4dd0845ef3ae366e0e345058f0d3ad431f91befe8fb99f88fbc31f98153264736f6c63430008100033",
    "linkReferences": {}
  },
  "methodIdentifiers": {
    "MAX_SUPPLY()": "32cb6b0c",
    "approve(address,uint256)": "095ea7b3",
    "balanceOf(address)": "70a08231",
    "getApproved(uint256)": "081812fc",
    "isApprovedForAll(address,address)": "e985e9c5",
    "mintPrice()": "6817c76c",
    "name()": "06fdde03",
    "owner()": "8da5cb5b",
    "ownerOf(uint256)": "6352211e",
    "renounceOwnership()": "715018a6",
    "safeMint(uint256)": "31c864e8",
    "safeTransferFrom(address,address,uint256)": "42842e0e",
    "safeTransferFrom(address,address,uint256,bytes)": "b88d4fde",
    "setApprovalForAll(address,bool)": "a22cb465",
    "supportsInterface(bytes4)": "01ffc9a7",
    "symbol()": "95d89b41",
    "tokenByIndex(uint256)": "4f6ccce7",
    "tokenOfOwnerByIndex(address,uint256)": "2f745c59",
    "tokenURI(uint256)": "c87b56dd",
    "totalSupply()": "18160ddd",
    "transferFrom(address,address,uint256)": "23b872dd",
    "transferOwnership(address)": "f2fde38b",
    "withdraw()": "3ccfd60b"
  },
  "id": 20
}