{
  "abi": [
    {
      "inputs": [],
      "stateMutability": "nonpayable",
      "type": "constructor"
    },
    {
      "anonymous": false,
      "inputs": [
        {
          "indexed": true,
          "internalType": "address",
          "name": "owner",
          "type": "address"
        },
        {
          "indexed": true,
          "internalType": "address",
          "name": "approved",
          "type": "address"
        },
        {
          "indexed": true,
          "internalType": "uint256",
          "name": "tokenId",
          "type": "uint256"
        }
      ],
      "name": "Approval",
      "type": "event"
    },
    {
      "anonymous": false,
      "inputs": [
        {
          "indexed": true,
          "internalType": "address",
          "name": "owner",
          "type": "address"
        },
        {
          "indexed": true,
          "internalType": "address",
          "name": "operator",
          "type": "address"
        },
        {
          "indexed": false,
          "internalType": "bool",
          "name": "approved",
          "type": "bool"
        }
      ],
      "name": "ApprovalForAll",
      "type": "event"
    },
    {
      "anonymous": false,
      "inputs": [
        {
          "indexed": true,
          "internalType": "address",
          "name": "previousOwner",
          "type": "address"
        },
        {
          "indexed": true,
          "internalType": "address",
          "name": "newOwner",
          "type": "address"
        }
      ],
      "name": "OwnershipTransferred",
      "type": "event"
    },
    {
      "anonymous": false,
      "inputs": [
        {
          "indexed": true,
          "internalType": "address",
          "name": "from",
          "type": "address"
        },
        {
          "indexed": true,
          "internalType": "address",
          "name": "to",
          "type": "address"
        },
        {
          "indexed": true,
          "internalType": "uint256",
          "name": "tokenId",
          "type": "uint256"
        }
      ],
      "name": "Transfer",
      "type": "event"
    },
    {
      "inputs": [],
      "name": "TOKEN_URI",
      "outputs": [
        {
          "internalType": "string",
          "name": "",
          "type": "string"
        }
      ],
      "stateMutability": "view",
      "type": "function"
    },
    {
      "inputs": [
        {
          "internalType": "address",
          "name": "to",
          "type": "address"
        },
        {
          "internalType": "uint256",
          "name": "tokenId",
          "type": "uint256"
        }
      ],
      "name": "approve",
      "outputs": [],
      "stateMutability": "nonpayable",
      "type": "function"
    },
    {
      "inputs": [
        {
          "internalType": "address",
          "name": "owner",
          "type": "address"
        }
      ],
      "name": "balanceOf",
      "outputs": [
        {
          "internalType": "uint256",
          "name": "",
          "type": "uint256"
        }
      ],
      "stateMutability": "view",
      "type": "function"
    },
    {
      "inputs": [
        {
          "internalType": "uint256",
          "name": "tokenId",
          "type": "uint256"
        }
      ],
      "name": "getApproved",
      "outputs": [
        {
          "internalType": "address",
          "name": "",
          "type": "address"
        }
      ],
      "stateMutability": "view",
      "type": "function"
    },
    {
      "inputs": [
        {
          "internalType": "address",
          "name": "owner",
          "type": "address"
        },
        {
          "internalType": "address",
          "name": "operator",
          "type": "address"
        }
      ],
      "name": "isApprovedForAll",
      "outputs": [
        {
          "internalType": "bool",
          "name": "",
          "type": "bool"
        }
      ],
      "stateMutability": "view",
      "type": "function"
    },
    {
      "inputs": [],
      "name": "name",
      "outputs": [
        {
          "internalType": "string",
          "name": "",
          "type": "string"
        }
      ],
      "stateMutability": "view",
      "type": "function"
    },
    {
      "inputs": [],
      "name": "owner",
      "outputs": [
        {
          "internalType": "address",
          "name": "",
          "type": "address"
        }
      ],
      "stateMutability": "view",
      "type": "function"
    },
    {
      "inputs": [
        {
          "internalType": "uint256",
          "name": "tokenId",
          "type": "uint256"
        }
      ],
      "name": "ownerOf",
      "outputs": [
        {
          "internalType": "address",
          "name": "",
          "type": "address"
        }
      ],
      "stateMutability": "view",
      "type": "function"
    },
    {
      "inputs": [],
      "name": "renounceOwnership",
      "outputs": [],
      "stateMutability": "nonpayable",
      "type": "function"
    },
    {
      "inputs": [
        {
          "internalType": "uint256",
          "name": "mintAmount",
          "type": "uint256"
        }
      ],
      "name": "safeMint",
      "outputs": [],
      "stateMutability": "payable",
      "type": "function"
    },
    {
      "inputs": [
        {
          "internalType": "address",
          "name": "from",
          "type": "address"
        },
        {
          "internalType": "address",
          "name": "to",
          "type": "address"
        },
        {
          "internalType": "uint256",
          "name": "tokenId",
          "type": "uint256"
        }
      ],
      "name": "safeTransferFrom",
      "outputs": [],
      "stateMutability": "nonpayable",
      "type": "function"
    },
    {
      "inputs": [
        {
          "internalType": "address",
          "name": "from",
          "type": "address"
        },
        {
          "internalType": "address",
          "name": "to",
          "type": "address"
        },
        {
          "internalType": "uint256",
          "name": "tokenId",
          "type": "uint256"
        },
        {
          "internalType": "bytes",
          "name": "data",
          "type": "bytes"
        }
      ],
      "name": "safeTransferFrom",
      "outputs": [],
      "stateMutability": "nonpayable",
      "type": "function"
    },
    {
      "inputs": [
        {
          "internalType": "address",
          "name": "operator",
          "type": "address"
        },
        {
          "internalType": "bool",
          "name": "approved",
          "type": "bool"
        }
      ],
      "name": "setApprovalForAll",
      "outputs": [],
      "stateMutability": "nonpayable",
      "type": "function"
    },
    {
      "inputs": [
        {
          "internalType": "bytes4",
          "name": "interfaceId",
          "type": "bytes4"
        }
      ],
      "name": "supportsInterface",
      "outputs": [
        {
          "internalType": "bool",
          "name": "",
          "type": "bool"
        }
      ],
      "stateMutability": "view",
      "type": "function"
    },
    {
      "inputs": [],
      "name": "symbol",
      "outputs": [
        {
          "internalType": "string",
          "name": "",
          "type": "string"
        }
      ],
      "stateMutability": "view",
      "type": "function"
    },
    {
      "inputs": [
        {
          "internalType": "uint256",
          "name": "index",
          "type": "uint256"
        }
      ],
      "name": "tokenByIndex",
      "outputs": [
        {
          "internalType": "uint256",
          "name": "",
          "type": "uint256"
        }
      ],
      "stateMutability": "view",
      "type": "function"
    },
    {
      "inputs": [
        {
          "internalType": "address",
          "name": "owner",
          "type": "address"
        },
        {
          "internalType": "uint256",
          "name": "index",
          "type": "uint256"
        }
      ],
      "name": "tokenOfOwnerByIndex",
      "outputs": [
        {
          "internalType": "uint256",
          "name": "",
          "type": "uint256"
        }
      ],
      "stateMutability": "view",
      "type": "function"
    },
    {
      "inputs": [
        {
          "internalType": "uint256",
          "name": "tokenId",
          "type": "uint256"
        }
      ],
      "name": "tokenURI",
      "outputs": [
        {
          "internalType": "string",
          "name": "",
          "type": "string"
        }
      ],
      "stateMutability": "view",
      "type": "function"
    },
    {
      "inputs": [],
      "name": "totalSupply",
      "outputs": [
        {
          "internalType": "uint256",
          "name": "",
          "type": "uint256"
        }
      ],
      "stateMutability": "view",
      "type": "function"
    },
    {
      "inputs": [
        {
          "internalType": "address",
          "name": "from",
          "type": "address"
        },
        {
          "internalType": "address",
          "name": "to",
          "type": "address"
        },
        {
          "internalType": "uint256",
          "name": "tokenId",
          "type": "uint256"
        }
      ],
      "name": "transferFrom",
      "outputs": [],
      "stateMutability": "nonpayable",
      "type": "function"
    },
    {
      "inputs": [
        {
          "internalType": "address",
          "name": "newOwner",
          "type": "address"
        }
      ],
      "name": "transferOwnership",
      "outputs": [],
      "stateMutability": "nonpayable",
      "type": "function"
    },
    {
      "inputs": [],
      "name": "withdraw",
      "outputs": [],
      "stateMutability": "payable",
      "type": "function"
    }
  ],
  "bytecode": {
    "object": "0x60806040526064600d55662386f26fc10000600e556005600f553480156200002657600080fd5b5060405180604001604052806005815260200164437574696560d81b815250604051806040016040528060048152602001634355544560e01b8152508160009081620000739190620001a0565b506001620000828282620001a0565b5050506200009f62000099620000a560201b60201c565b620000a9565b6200026c565b3390565b600b80546001600160a01b038381166001600160a01b0319831681179093556040519116919082907f8be0079c531659141344cd1fd0a4f28419497f9722a3daafe3b4186f6b6457e090600090a35050565b634e487b7160e01b600052604160045260246000fd5b600181811c908216806200012657607f821691505b6020821081036200014757634e487b7160e01b600052602260045260246000fd5b50919050565b601f8211156200019b57600081815260208120601f850160051c81016020861015620001765750805b601f850160051c820191505b81811015620001975782815560010162000182565b5050505b505050565b81516001600160401b03811115620001bc57620001bc620000fb565b620001d481620001cd845462000111565b846200014d565b602080601f8311600181146200020c5760008415620001f35750858301515b600019600386901b1c1916600185901b17855562000197565b600085815260208120601f198616915b828110156200023d578886015182559484019460019091019084016200021c565b50858210156200025c5787850151600019600388901b60f8161c191681555b5050505050600190811b01905550565b611f6f806200027c6000396000f3fe6080604052600436106101355760003560e01c80636352211e116100ab57806395d89b411161006f57806395d89b411461032d578063a22cb46514610342578063b88d4fde14610362578063c87b56dd14610382578063e985e9c5146103a2578063f2fde38b146103eb57600080fd5b80636352211e146102a557806370a08231146102c5578063715018a6146102e557806378ce9035146102fa5780638da5cb5b1461030f57600080fd5b806323b872dd116100fd57806323b872dd1461020a5780632f745c591461022a57806331c864e81461024a5780633ccfd60b1461025d57806342842e0e146102655780634f6ccce71461028557600080fd5b806301ffc9a71461013a57806306fdde031461016f578063081812fc14610191578063095ea7b3146101c957806318160ddd146101eb575b600080fd5b34801561014657600080fd5b5061015a61015536600461191f565b61040b565b60405190151581526020015b60405180910390f35b34801561017b57600080fd5b5061018461041c565b604051610166919061198c565b34801561019d57600080fd5b506101b16101ac36600461199f565b6104ae565b6040516001600160a01b039091168152602001610166565b3480156101d557600080fd5b506101e96101e43660046119d4565b6104d5565b005b3480156101f757600080fd5b506008545b604051908152602001610166565b34801561021657600080fd5b506101e96102253660046119fe565b6105ef565b34801561023657600080fd5b506101fc6102453660046119d4565b610620565b6101e961025836600461199f565b6106b6565b6101e9610877565b34801561027157600080fd5b506101e96102803660046119fe565b61094c565b34801561029157600080fd5b506101fc6102a036600461199f565b610967565b3480156102b157600080fd5b506101b16102c036600461199f565b6109fa565b3480156102d157600080fd5b506101fc6102e0366004611a3a565b610a5a565b3480156102f157600080fd5b506101e9610ae0565b34801561030657600080fd5b50610184610af4565b34801561031b57600080fd5b50600b546001600160a01b03166101b1565b34801561033957600080fd5b50610184610b10565b34801561034e57600080fd5b506101e961035d366004611a55565b610b1f565b34801561036e57600080fd5b506101e961037d366004611aa7565b610b2a565b34801561038e57600080fd5b5061018461039d36600461199f565b610b62565b3480156103ae57600080fd5b5061015a6103bd366004611b83565b6001600160a01b03918216600090815260056020908152604080832093909416825291909152205460ff1690565b3480156103f757600080fd5b506101e9610406366004611a3a565b610b6d565b600061041682610be6565b92915050565b60606000805461042b90611bb6565b80601f016020809104026020016040519081016040528092919081815260200182805461045790611bb6565b80156104a45780601f10610479576101008083540402835291602001916104a4565b820191906000526020600020905b81548152906001019060200180831161048757829003601f168201915b5050505050905090565b60006104b982610c0b565b506000908152600460205260409020546001600160a01b031690565b60006104e0826109fa565b9050806001600160a01b0316836001600160a01b0316036105525760405162461bcd60e51b815260206004820152602160248201527f4552433732313a20617070726f76616c20746f2063757272656e74206f776e656044820152603960f91b60648201526084015b60405180910390fd5b336001600160a01b038216148061056e575061056e81336103bd565b6105e05760405162461bcd60e51b815260206004820152603d60248201527f4552433732313a20617070726f76652063616c6c6572206973206e6f7420746f60448201527f6b656e206f776e6572206f7220617070726f76656420666f7220616c6c0000006064820152608401610549565b6105ea8383610c6a565b505050565b6105f93382610cd8565b6106155760405162461bcd60e51b815260040161054990611bf0565b6105ea838383610d57565b600061062b83610a5a565b821061068d5760405162461bcd60e51b815260206004820152602b60248201527f455243373231456e756d657261626c653a206f776e657220696e646578206f7560448201526a74206f6620626f756e647360a81b6064820152608401610549565b506001600160a01b03919091166000908152600660209081526040808320938352929052205490565b600081116106fd5760405162461bcd60e51b81526020600482015260146024820152734d757374206d696e74206174206c65617374203160601b6044820152606401610549565b600f5481111561075f5760405162461bcd60e51b815260206004820152602760248201527f4d6178696d756d2035206e66747320616c6c6f77656420696e2061207472616e60448201526639b0b1ba34b7b760c91b6064820152608401610549565b600d548161076c600c5490565b6107769190611c53565b11156107bb5760405162461bcd60e51b81526020600482015260146024820152730a6eae0e0d8f240d2e640dcdee840cadcdeeaced60631b6044820152606401610549565b80600e546107c99190611c66565b34101561080f5760405162461bcd60e51b8152602060048201526014602482015273496e73756666696369656e742062616c616e636560601b6044820152606401610549565b60015b81811161087357610827600c80546001019055565b6000610832600c5490565b905061083e3382610f0d565b61086081604051806060016040528060358152602001611f0560359139610f27565b508061086b81611c85565b915050610812565b5050565b61087f610fba565b47806108c25760405162461bcd60e51b81526020600482015260126024820152714e6f7420656e6f7567682062616c616e636560701b6044820152606401610549565b604051600090339083908381818185875af1925050503d8060008114610904576040519150601f19603f3d011682016040523d82523d6000602084013e610909565b606091505b50509050806108735760405162461bcd60e51b815260206004820152600f60248201526e15da5d1a191c985dc819985a5b1959608a1b6044820152606401610549565b6105ea83838360405180602001604052806000815250610b2a565b600061097260085490565b82106109d55760405162461bcd60e51b815260206004820152602c60248201527f455243373231456e756d657261626c653a20676c6f62616c20696e646578206f60448201526b7574206f6620626f756e647360a01b6064820152608401610549565b600882815481106109e8576109e8611c9e565b90600052602060002001549050919050565b6000818152600260205260408120546001600160a01b0316806104165760405162461bcd60e51b8152602060048201526018602482015277115490cdcc8c4e881a5b9d985b1a59081d1bdad95b88125160421b6044820152606401610549565b60006001600160a01b038216610ac45760405162461bcd60e51b815260206004820152602960248201527f4552433732313a2061646472657373207a65726f206973206e6f7420612076616044820152683634b21037bbb732b960b91b6064820152608401610549565b506001600160a01b031660009081526003602052604090205490565b610ae8610fba565b610af26000611014565b565b604051806060016040528060358152602001611f056035913981565b60606001805461042b90611bb6565b610873338383611066565b610b343383610cd8565b610b505760405162461bcd60e51b815260040161054990611bf0565b610b5c84848484611134565b50505050565b606061041682611167565b610b75610fba565b6001600160a01b038116610bda5760405162461bcd60e51b815260206004820152602660248201527f4f776e61626c653a206e6577206f776e657220697320746865207a65726f206160448201526564647265737360d01b6064820152608401610549565b610be381611014565b50565b60006001600160e01b0319821663780e9d6360e01b148061041657506104168261126f565b6000818152600260205260409020546001600160a01b0316610be35760405162461bcd60e51b8152602060048201526018602482015277115490cdcc8c4e881a5b9d985b1a59081d1bdad95b88125160421b6044820152606401610549565b600081815260046020526040902080546001600160a01b0319166001600160a01b0384169081179091558190610c9f826109fa565b6001600160a01b03167f8c5be1e5ebec7d5bd14f71427d1e84f3dd0314c0f7b2291e5b200ac8c7c3b92560405160405180910390a45050565b600080610ce4836109fa565b9050806001600160a01b0316846001600160a01b03161480610d2b57506001600160a01b0380821660009081526005602090815260408083209388168352929052205460ff165b80610d4f5750836001600160a01b0316610d44846104ae565b6001600160a01b0316145b949350505050565b826001600160a01b0316610d6a826109fa565b6001600160a01b031614610dce5760405162461bcd60e51b815260206004820152602560248201527f4552433732313a207472616e736665722066726f6d20696e636f72726563742060448201526437bbb732b960d91b6064820152608401610549565b6001600160a01b038216610e305760405162461bcd60e51b8152602060048201526024808201527f4552433732313a207472616e7366657220746f20746865207a65726f206164646044820152637265737360e01b6064820152608401610549565b610e3b8383836112bf565b600081815260046020908152604080832080546001600160a01b03191690556001600160a01b038616835260039091528120805460019290610e7e908490611cb4565b90915550506001600160a01b0382166000908152600360205260408120805460019290610eac908490611c53565b909155505060008181526002602052604080822080546001600160a01b0319166001600160a01b0386811691821790925591518493918716917fddf252ad1be2c89b69c2b068fc378daa952ba7f163c4a11628f55a4df523b3ef91a4505050565b6108738282604051806020016040528060008152506112ca565b6000828152600260205260409020546001600160a01b0316610fa25760405162461bcd60e51b815260206004820152602e60248201527f45524337323155524953746f726167653a2055524920736574206f66206e6f6e60448201526d32bc34b9ba32b73a103a37b5b2b760911b6064820152608401610549565b6000828152600a602052604090206105ea8282611d15565b600b546001600160a01b03163314610af25760405162461bcd60e51b815260206004820181905260248201527f4f776e61626c653a2063616c6c6572206973206e6f7420746865206f776e65726044820152606401610549565b600b80546001600160a01b038381166001600160a01b0319831681179093556040519116919082907f8be0079c531659141344cd1fd0a4f28419497f9722a3daafe3b4186f6b6457e090600090a35050565b816001600160a01b0316836001600160a01b0316036110c75760405162461bcd60e51b815260206004820152601960248201527f4552433732313a20617070726f766520746f2063616c6c6572000000000000006044820152606401610549565b6001600160a01b03838116600081815260056020908152604080832094871680845294825291829020805460ff191686151590811790915591519182527f17307eab39ab6107e8899845ad3d59bd9653f200f220920489ca2b5937696c31910160405180910390a3505050565b61113f848484610d57565b61114b848484846112fd565b610b5c5760405162461bcd60e51b815260040161054990611dd5565b606061117282610c0b565b6000828152600a60205260408120805461118b90611bb6565b80601f01602080910402602001604051908101604052809291908181526020018280546111b790611bb6565b80156112045780601f106111d957610100808354040283529160200191611204565b820191906000526020600020905b8154815290600101906020018083116111e757829003601f168201915b50505050509050600061122260408051602081019091526000815290565b90508051600003611234575092915050565b81511561126657808260405160200161124e929190611e27565b60405160208183030381529060405292505050919050565b610d4f846113fe565b60006001600160e01b031982166380ac58cd60e01b14806112a057506001600160e01b03198216635b5e139f60e01b145b8061041657506301ffc9a760e01b6001600160e01b0319831614610416565b6105ea838383611472565b6112d4838361152a565b6112e160008484846112fd565b6105ea5760405162461bcd60e51b815260040161054990611dd5565b60006001600160a01b0384163b156113f357604051630a85bd0160e11b81526001600160a01b0385169063150b7a0290611341903390899088908890600401611e56565b6020604051808303816000875af192505050801561137c575060408051601f3d908101601f1916820190925261137991810190611e93565b60015b6113d9573d8080156113aa576040519150601f19603f3d011682016040523d82523d6000602084013e6113af565b606091505b5080516000036113d15760405162461bcd60e51b815260040161054990611dd5565b805181602001fd5b6001600160e01b031916630a85bd0160e11b149050610d4f565b506001949350505050565b606061140982610c0b565b600061142060408051602081019091526000815290565b90506000815111611440576040518060200160405280600081525061146b565b8061144a84611678565b60405160200161145b929190611e27565b6040516020818303038152906040525b9392505050565b6001600160a01b0383166114cd576114c881600880546000838152600960205260408120829055600182018355919091527ff3f7a9fe364faab93b216da50a3214154f22a0a2b415b23a84c8169e8b636ee30155565b6114f0565b816001600160a01b0316836001600160a01b0316146114f0576114f08382611779565b6001600160a01b038216611507576105ea81611816565b826001600160a01b0316826001600160a01b0316146105ea576105ea82826118c5565b6001600160a01b0382166115805760405162461bcd60e51b815260206004820181905260248201527f4552433732313a206d696e7420746f20746865207a65726f20616464726573736044820152606401610549565b6000818152600260205260409020546001600160a01b0316156115e55760405162461bcd60e51b815260206004820152601c60248201527f4552433732313a20746f6b656e20616c7265616479206d696e746564000000006044820152606401610549565b6115f1600083836112bf565b6001600160a01b038216600090815260036020526040812080546001929061161a908490611c53565b909155505060008181526002602052604080822080546001600160a01b0319166001600160a01b03861690811790915590518392907fddf252ad1be2c89b69c2b068fc378daa952ba7f163c4a11628f55a4df523b3ef908290a45050565b60608160000361169f5750506040805180820190915260018152600360fc1b602082015290565b8160005b81156116c957806116b381611c85565b91506116c29050600a83611ec6565b91506116a3565b60008167ffffffffffffffff8111156116e4576116e4611a91565b6040519080825280601f01601f19166020018201604052801561170e576020820181803683370190505b5090505b8415610d4f57611723600183611cb4565b9150611730600a86611eda565b61173b906030611c53565b60f81b81838151811061175057611750611c9e565b60200101906001600160f81b031916908160001a905350611772600a86611ec6565b9450611712565b6000600161178684610a5a565b6117909190611cb4565b6000838152600760205260409020549091508082146117e3576001600160a01b03841660009081526006602090815260408083208584528252808320548484528184208190558352600790915290208190555b5060009182526007602090815260408084208490556001600160a01b039094168352600681528383209183525290812055565b60085460009061182890600190611cb4565b6000838152600960205260408120546008805493945090928490811061185057611850611c9e565b90600052602060002001549050806008838154811061187157611871611c9e565b60009182526020808320909101929092558281526009909152604080822084905585825281205560088054806118a9576118a9611eee565b6001900381819060005260206000200160009055905550505050565b60006118d083610a5a565b6001600160a01b039093166000908152600660209081526040808320868452825280832085905593825260079052919091209190915550565b6001600160e01b031981168114610be357600080fd5b60006020828403121561193157600080fd5b813561146b81611909565b60005b8381101561195757818101518382015260200161193f565b50506000910152565b6000815180845261197881602086016020860161193c565b601f01601f19169290920160200192915050565b60208152600061146b6020830184611960565b6000602082840312156119b157600080fd5b5035919050565b80356001600160a01b03811681146119cf57600080fd5b919050565b600080604083850312156119e757600080fd5b6119f0836119b8565b946020939093013593505050565b600080600060608486031215611a1357600080fd5b611a1c846119b8565b9250611a2a602085016119b8565b9150604084013590509250925092565b600060208284031215611a4c57600080fd5b61146b826119b8565b60008060408385031215611a6857600080fd5b611a71836119b8565b915060208301358015158114611a8657600080fd5b809150509250929050565b634e487b7160e01b600052604160045260246000fd5b60008060008060808587031215611abd57600080fd5b611ac6856119b8565b9350611ad4602086016119b8565b925060408501359150606085013567ffffffffffffffff80821115611af857600080fd5b818701915087601f830112611b0c57600080fd5b813581811115611b1e57611b1e611a91565b604051601f8201601f19908116603f01168101908382118183101715611b4657611b46611a91565b816040528281528a6020848701011115611b5f57600080fd5b82602086016020830137600060208483010152809550505050505092959194509250565b60008060408385031215611b9657600080fd5b611b9f836119b8565b9150611bad602084016119b8565b90509250929050565b600181811c90821680611bca57607f821691505b602082108103611bea57634e487b7160e01b600052602260045260246000fd5b50919050565b6020808252602d908201527f4552433732313a2063616c6c6572206973206e6f7420746f6b656e206f776e6560408201526c1c881bdc88185c1c1c9bdd9959609a1b606082015260800190565b634e487b7160e01b600052601160045260246000fd5b8082018082111561041657610416611c3d565b6000816000190483118215151615611c8057611c80611c3d565b500290565b600060018201611c9757611c97611c3d565b5060010190565b634e487b7160e01b600052603260045260246000fd5b8181038181111561041657610416611c3d565b601f8211156105ea57600081815260208120601f850160051c81016020861015611cee5750805b601f850160051c820191505b81811015611d0d57828155600101611cfa565b505050505050565b815167ffffffffffffffff811115611d2f57611d2f611a91565b611d4381611d3d8454611bb6565b84611cc7565b602080601f831160018114611d785760008415611d605750858301515b600019600386901b1c1916600185901b178555611d0d565b600085815260208120601f198616915b82811015611da757888601518255948401946001909101908401611d88565b5085821015611dc55787850151600019600388901b60f8161c191681555b5050505050600190811b01905550565b60208082526032908201527f4552433732313a207472616e7366657220746f206e6f6e20455243373231526560408201527131b2b4bb32b91034b6b83632b6b2b73a32b960711b606082015260800190565b60008351611e3981846020880161193c565b835190830190611e4d81836020880161193c565b01949350505050565b6001600160a01b0385811682528416602082015260408101839052608060608201819052600090611e8990830184611960565b9695505050505050565b600060208284031215611ea557600080fd5b815161146b81611909565b634e487b7160e01b600052601260045260246000fd5b600082611ed557611ed5611eb0565b500490565b600082611ee957611ee9611eb0565b500690565b634e487b7160e01b600052603160045260246000fdfe697066733a2f2f516d5a76424673544668665237356245566974475648637143436b52355767596d6748564e696848356e6d656a4ea2646970667358221220d875f7af52e1e95f1709fe055faab9a56ba781988bb56f6256a139d5e65f430c64736f6c63430008100033",
    "linkReferences": {}
  },
  "methodIdentifiers": {
    "TOKEN_URI()": "78ce9035",
    "approve(address,uint256)": "095ea7b3",
    "balanceOf(address)": "70a08231",
    "getApproved(uint256)": "081812fc",
    "isApprovedForAll(address,address)": "e985e9c5",
    "name()": "06fdde03",
    "owner()": "8da5cb5b",
    "ownerOf(uint256)": "6352211e",
    "renounceOwnership()": "715018a6",
    "safeMint(uint256)": "31c864e8",
    "safeTransferFrom(address,address,uint256)": "42842e0e",
    "safeTransferFrom(address,address,uint256,bytes)": "b88d4fde",
    "setApprovalForAll(address,bool)": "a22cb465",
    "supportsInterface(bytes4)": "01ffc9a7",
    "symbol()": "95d89b41",
    "tokenByIndex(uint256)": "4f6ccce7",
    "tokenOfOwnerByIndex(address,uint256)": "2f745c59",
    "tokenURI(uint256)": "c87b56dd",
    "totalSupply()": "18160ddd",
    "transferFrom(address,address,uint256)": "23b872dd",
    "transferOwnership(address)": "f2fde38b",
    "withdraw()": "3ccfd60b"
  },
  "id": 20
}